{
  "address": "0x5FbDB2315678afecb367f032d93F642f64180aa3",
  "abi": [
    {
      "inputs": [],
      "stateMutability": "nonpayable",
      "type": "constructor"
    },
    {
      "anonymous": false,
      "inputs": [
        {
          "components": [
            {
              "internalType": "string",
              "name": "userName",
              "type": "string"
            },
            {
              "internalType": "string",
              "name": "password",
              "type": "string"
            },
            {
              "internalType": "uint256",
              "name": "userID",
              "type": "uint256"
            },
            {
              "internalType": "address payable",
              "name": "userAddress",
              "type": "address"
            },
            {
              "internalType": "bool",
              "name": "isUserLoggedIn",
              "type": "bool"
            }
          ],
          "indexed": false,
          "internalType": "struct CarRental.User",
          "name": "user",
          "type": "tuple"
        }
      ],
      "name": "LoginDone",
      "type": "event"
    },
    {
      "anonymous": false,
      "inputs": [
        {
          "indexed": false,
          "internalType": "string",
          "name": "fail",
          "type": "string"
        }
      ],
      "name": "LoginFail",
      "type": "event"
    },
    {
      "anonymous": false,
      "inputs": [
        {
          "components": [
            {
              "internalType": "string",
              "name": "userName",
              "type": "string"
            },
            {
              "internalType": "string",
              "name": "password",
              "type": "string"
            },
            {
              "internalType": "uint256",
              "name": "userID",
              "type": "uint256"
            },
            {
              "internalType": "address payable",
              "name": "userAddress",
              "type": "address"
            },
            {
              "internalType": "bool",
              "name": "isUserLoggedIn",
              "type": "bool"
            }
          ],
          "indexed": false,
          "internalType": "struct CarRental.User",
          "name": "user",
          "type": "tuple"
        }
      ],
      "name": "accountCreated",
      "type": "event"
    },
    {
      "anonymous": false,
      "inputs": [
        {
          "indexed": true,
          "internalType": "uint256",
          "name": "carID",
          "type": "uint256"
        },
        {
          "components": [
            {
              "internalType": "bool",
              "name": "isAvailable",
              "type": "bool"
            },
            {
              "internalType": "string",
              "name": "carLocation",
              "type": "string"
            },
            {
              "internalType": "uint256",
              "name": "carID",
              "type": "uint256"
            },
            {
              "internalType": "uint256",
              "name": "price",
              "type": "uint256"
            },
            {
              "internalType": "string",
              "name": "ownerName",
              "type": "string"
            }
          ],
          "indexed": false,
          "internalType": "struct CarRental.CarInfo",
          "name": "car",
          "type": "tuple"
        }
      ],
      "name": "carAdded",
      "type": "event"
    },
    {
      "anonymous": false,
      "inputs": [
        {
          "indexed": false,
          "internalType": "string",
          "name": "customerName",
          "type": "string"
        },
        {
          "indexed": false,
          "internalType": "uint256",
          "name": "customerAge",
          "type": "uint256"
        },
        {
          "indexed": false,
          "internalType": "uint256",
          "name": "licenseID",
          "type": "uint256"
        }
      ],
      "name": "carReturned",
      "type": "event"
    },
    {
      "anonymous": false,
      "inputs": [
        {
          "indexed": false,
          "internalType": "string",
          "name": "customerName",
          "type": "string"
        },
        {
          "indexed": false,
          "internalType": "uint256",
          "name": "customerAge",
          "type": "uint256"
        },
        {
          "indexed": false,
          "internalType": "uint256",
          "name": "licenseID",
          "type": "uint256"
        }
      ],
      "name": "rentalCanceled",
      "type": "event"
    },
    {
      "anonymous": false,
      "inputs": [
        {
          "indexed": false,
          "internalType": "string",
          "name": "customerName",
          "type": "string"
        },
        {
          "indexed": false,
          "internalType": "uint256",
          "name": "customerAge",
          "type": "uint256"
        },
        {
          "indexed": false,
          "internalType": "uint256",
          "name": "licenseID",
          "type": "uint256"
        }
      ],
      "name": "rentalConfirmed",
      "type": "event"
    },
    {
      "anonymous": false,
      "inputs": [
        {
          "indexed": false,
          "internalType": "string",
          "name": "customerName",
          "type": "string"
        },
        {
          "indexed": false,
          "internalType": "uint256",
          "name": "customerAge",
          "type": "uint256"
        },
        {
          "indexed": false,
          "internalType": "uint256",
          "name": "licenseID",
          "type": "uint256"
        },
        {
          "indexed": false,
          "internalType": "uint256",
          "name": "carID",
          "type": "uint256"
        }
      ],
      "name": "rentalPlaced",
      "type": "event"
    },
    {
      "inputs": [
        {
          "internalType": "address",
          "name": "_address",
          "type": "address"
        },
        {
          "internalType": "string",
          "name": "_password",
          "type": "string"
        }
      ],
      "name": "Login",
      "outputs": [
        {
          "internalType": "bool",
          "name": "",
          "type": "bool"
        }
      ],
      "stateMutability": "nonpayable",
      "type": "function"
    },
    {
      "inputs": [
        {
          "internalType": "address payable",
          "name": "_Account",
          "type": "address"
        },
        {
          "internalType": "string",
          "name": "_userName",
          "type": "string"
        },
        {
          "internalType": "string",
          "name": "_password",
          "type": "string"
        }
      ],
      "name": "SignUp",
      "outputs": [
        {
          "internalType": "bool",
          "name": "",
          "type": "bool"
        }
      ],
      "stateMutability": "nonpayable",
      "type": "function"
    },
    {
      "inputs": [
        {
          "internalType": "string",
          "name": "_carOwner",
          "type": "string"
        },
        {
          "internalType": "string",
          "name": "_carLocation",
          "type": "string"
        }
      ],
      "name": "addCar",
      "outputs": [
        {
          "internalType": "bool",
          "name": "",
          "type": "bool"
        }
      ],
      "stateMutability": "nonpayable",
      "type": "function"
    },
    {
      "inputs": [
        {
          "internalType": "address",
          "name": "",
          "type": "address"
        }
      ],
      "name": "balances",
      "outputs": [
        {
          "internalType": "uint256",
          "name": "",
          "type": "uint256"
        }
      ],
      "stateMutability": "view",
      "type": "function"
    },
    {
      "inputs": [],
      "name": "cancelRental",
      "outputs": [],
      "stateMutability": "payable",
      "type": "function"
    },
    {
      "inputs": [
        {
          "internalType": "uint256",
          "name": "",
          "type": "uint256"
        }
      ],
      "name": "cars",
      "outputs": [
        {
          "internalType": "bool",
          "name": "isAvailable",
          "type": "bool"
        },
        {
          "internalType": "string",
          "name": "carLocation",
          "type": "string"
        },
        {
          "internalType": "uint256",
          "name": "carID",
          "type": "uint256"
        },
        {
          "internalType": "uint256",
          "name": "price",
          "type": "uint256"
        },
        {
          "internalType": "string",
          "name": "ownerName",
          "type": "string"
        }
      ],
      "stateMutability": "view",
      "type": "function"
    },
    {
      "inputs": [],
      "name": "confirmRental",
      "outputs": [],
      "stateMutability": "nonpayable",
      "type": "function"
    },
    {
      "inputs": [
        {
          "internalType": "string",
          "name": "_customerName",
          "type": "string"
        },
        {
          "internalType": "uint256",
          "name": "_age",
          "type": "uint256"
        },
        {
          "internalType": "uint256",
          "name": "_licenseID",
          "type": "uint256"
        },
        {
          "internalType": "uint256",
          "name": "_carID",
          "type": "uint256"
        }
      ],
      "name": "createRental",
      "outputs": [],
      "stateMutability": "payable",
      "type": "function"
    },
    {
      "inputs": [],
      "name": "getBalanceofOwner",
      "outputs": [
        {
          "internalType": "uint256",
          "name": "",
          "type": "uint256"
        }
      ],
      "stateMutability": "view",
      "type": "function"
    },
    {
      "inputs": [],
      "name": "getBalanceofSC",
      "outputs": [
        {
          "internalType": "uint256",
          "name": "",
          "type": "uint256"
        }
      ],
      "stateMutability": "view",
      "type": "function"
    },
    {
      "inputs": [
        {
          "internalType": "uint256",
          "name": "_carID",
          "type": "uint256"
        }
      ],
      "name": "getcarAvailability",
      "outputs": [
        {
          "internalType": "bool",
          "name": "",
          "type": "bool"
        }
      ],
      "stateMutability": "view",
      "type": "function"
    },
    {
      "inputs": [
        {
          "internalType": "uint256",
          "name": "_carID",
          "type": "uint256"
        }
      ],
      "name": "getcarID",
      "outputs": [
        {
          "internalType": "uint256",
          "name": "",
          "type": "uint256"
        }
      ],
      "stateMutability": "view",
      "type": "function"
    },
    {
      "inputs": [
        {
          "internalType": "uint256",
          "name": "_carID",
          "type": "uint256"
        }
      ],
      "name": "getcarLocation",
      "outputs": [
        {
          "internalType": "string",
          "name": "",
          "type": "string"
        }
      ],
      "stateMutability": "view",
      "type": "function"
    },
    {
      "inputs": [],
      "name": "getcustomerAge",
      "outputs": [
        {
          "internalType": "uint256",
          "name": "",
          "type": "uint256"
        }
      ],
      "stateMutability": "view",
      "type": "function"
    },
    {
      "inputs": [],
      "name": "getcustomerName",
      "outputs": [
        {
          "internalType": "string",
          "name": "",
          "type": "string"
        }
      ],
      "stateMutability": "view",
      "type": "function"
    },
    {
      "inputs": [],
      "name": "getlicenseID",
      "outputs": [
        {
          "internalType": "uint256",
          "name": "",
          "type": "uint256"
        }
      ],
      "stateMutability": "view",
      "type": "function"
    },
    {
      "inputs": [],
      "name": "getorderConfirmation",
      "outputs": [
        {
          "internalType": "bool",
          "name": "",
          "type": "bool"
        }
      ],
      "stateMutability": "view",
      "type": "function"
    },
    {
      "inputs": [],
      "name": "getorderReturn",
      "outputs": [
        {
          "internalType": "bool",
          "name": "",
          "type": "bool"
        }
      ],
      "stateMutability": "view",
      "type": "function"
    },
    {
      "inputs": [],
      "name": "getorderValidity",
      "outputs": [
        {
          "internalType": "bool",
          "name": "",
          "type": "bool"
        }
      ],
      "stateMutability": "view",
      "type": "function"
    },
    {
      "inputs": [
        {
          "internalType": "uint256",
          "name": "_carID",
          "type": "uint256"
        }
      ],
      "name": "getownerName",
      "outputs": [
        {
          "internalType": "string",
          "name": "",
          "type": "string"
        }
      ],
      "stateMutability": "view",
      "type": "function"
    },
    {
      "inputs": [
        {
          "internalType": "address",
          "name": "_address",
          "type": "address"
        }
      ],
      "name": "logout",
      "outputs": [],
      "stateMutability": "nonpayable",
      "type": "function"
    },
    {
      "inputs": [],
      "name": "price",
      "outputs": [
        {
          "internalType": "uint256",
          "name": "",
          "type": "uint256"
        }
      ],
      "stateMutability": "view",
      "type": "function"
    },
    {
      "inputs": [
        {
          "internalType": "address",
          "name": "",
          "type": "address"
        }
      ],
      "name": "rentals",
      "outputs": [
        {
          "internalType": "bool",
          "name": "isValidRental",
          "type": "bool"
        },
        {
          "internalType": "string",
          "name": "customerName",
          "type": "string"
        },
        {
          "internalType": "uint256",
          "name": "customerAge",
          "type": "uint256"
        },
        {
          "internalType": "uint256",
          "name": "licenseID",
          "type": "uint256"
        },
        {
          "internalType": "uint256",
          "name": "rentDuration",
          "type": "uint256"
        },
        {
          "internalType": "bool",
          "name": "hasReturned",
          "type": "bool"
        },
        {
          "internalType": "bool",
          "name": "hasConfirmed",
          "type": "bool"
        }
      ],
      "stateMutability": "view",
      "type": "function"
    },
    {
      "inputs": [
        {
          "internalType": "uint256",
          "name": "_carID",
          "type": "uint256"
        }
      ],
      "name": "returnCar",
      "outputs": [],
      "stateMutability": "nonpayable",
      "type": "function"
    },
    {
      "inputs": [],
      "name": "totalCarNum",
      "outputs": [
        {
          "internalType": "uint256",
          "name": "",
          "type": "uint256"
        }
      ],
      "stateMutability": "view",
      "type": "function"
    }
  ],
  "transactionHash": "0x5dded286700f0d600d07ff513e88565750f49fc5c4f6d3d9d729eeea1e6f6c5e",
  "args": [],
  "solcInputHash": "71355baf5536389e10c84cd562d701d4",
  "bytecode": "0x60806040526000600255600060035534801561001a57600080fd5b50600080546001600160a01b0319908116331790915560018054909116301790556120c78061004a6000396000f3fe6080604052600436106101365760003560e01c806364ea9ef3116100b157806364ea9ef3146102865780636ba85eb41461029b5780636bdd7e9a146102ce5780636f2b2c70146102ee5780638f1395e514610303578063a035b1fe14610323578063a4b4e42b14610338578063ba0235db14610358578063cc51f9b914610378578063de320add14610398578063e7411f83146103ad578063f183d377146103cd578063f7746e36146103e257610136565b8063075569a31461013b5780630bccc291146101665780631436d16e1461017d57806317f956e0146101aa5780631af6c8cc146101ca57806321b3e898146101df57806327e235e3146101f25780632f5edecd1461021257806330ff2ed4146102345780633a15add0146102545780634fb0a98c1461026957806364d3d1361461027e575b600080fd5b34801561014757600080fd5b50610150610413565b60405161015d9190611fbf565b60405180910390f35b34801561017257600080fd5b5061017b610423565b005b34801561018957600080fd5b5061019d61019836600461191d565b610529565b60405161015d9190611b84565b3480156101b657600080fd5b5061017b6101c5366004611a83565b6107cf565b3480156101d657600080fd5b5061019d6109aa565b61017b6101ed366004611a32565b6109cd565b3480156101fe57600080fd5b5061015061020d3660046118fa565b610ccf565b34801561021e57600080fd5b50610227610ce1565b60405161015d9190611c1d565b34801561024057600080fd5b5061015061024f366004611a83565b610d8e565b34801561026057600080fd5b5061019d610da3565b34801561027557600080fd5b5061019d610dcb565b61017b610dea565b34801561029257600080fd5b50610150610fa1565b3480156102a757600080fd5b506102bb6102b63660046118fa565b610fa7565b60405161015d9796959493929190611bd4565b3480156102da57600080fd5b5061019d6102e93660046119dc565b611075565b3480156102fa57600080fd5b506101506111d2565b34801561030f57600080fd5b5061019d61031e366004611a83565b6111ee565b34801561032f57600080fd5b50610150611203565b34801561034457600080fd5b5061019d61035336600461198f565b61120f565b34801561036457600080fd5b50610227610373366004611a83565b6114e0565b34801561038457600080fd5b5061017b6103933660046118fa565b611585565b3480156103a457600080fd5b506101506115d5565b3480156103b957600080fd5b506102276103c8366004611a83565b6115f4565b3480156103d957600080fd5b50610150611614565b3480156103ee57600080fd5b506104026103fd366004611a83565b611633565b60405161015d959493929190611b8f565b6001546001600160a01b03163190565b600080546001600160a01b031681526005602052604090205460ff1615156001146104695760405162461bcd60e51b815260040161046090611eab565b60405180910390fd5b600080546001600160a01b0390811682526005602081905260408084208201805461ff00191661010090811790915584549093168452909220909101540460ff1615156001146104c957634e487b7160e01b600052600160045260246000fd5b600080546001600160a01b0316815260056020526040908190206002810154600382015492517fed78816087eca6df0f765f0aca46ab87a736468a8764ef88ed0b41c4adaff9499361051f936001019291611c30565b60405180910390a1565b60006001600160a01b0384166105515760405162461bcd60e51b815260040161046090611c7f565b6001600160a01b0384166000908152600760205260409020600201541561058a5760405162461bcd60e51b815260040161046090611e56565b60008351116105ab5760405162461bcd60e51b815260040161046090611cb1565b60008251116105cc5760405162461bcd60e51b815260040161046090611cde565b6105d4611776565b600380549060006105e48361203f565b909155505060035460408201526001600160a01b03851660608201819052848252602082018490526000608083015261062d57634e487b7160e01b600052600160045260246000fd5b6001600160a01b0385166000908152600760205260409020600201541561066457634e487b7160e01b600052600160045260246000fd5b600084511161068357634e487b7160e01b600052600160045260246000fd5b60008351116106a257634e487b7160e01b600052600160045260246000fd5b846001600160a01b031681606001516001600160a01b0316146106d557634e487b7160e01b600052600160045260246000fd5b6080810151156106f557634e487b7160e01b600052600160045260246000fd5b6001600160a01b03851660009081526007602090815260409091208251805184936107249284929101906117b0565b50602082810151805161073d92600185019201906117b0565b5060408281015160028301556060830151600390920180546080909401511515600160a01b0260ff60a01b196001600160a01b039094166001600160a01b03199095169490941792909216929092179055517f2c988b5a7cf9ffacc161786f216866af35142b37c1dc5484c1b961f166e2b882906107bc908390611f51565b60405180910390a1506001949350505050565b600080546001600160a01b031681526005602052604090205460ff16151560011461080c5760405162461bcd60e51b815260040161046090611eab565b600080546001600160a01b0390811682526005602081815260408085208301805461ff0019169055845484168552808520805460ff1990811690915585548516865281862084018054821660019081179091558787526006845282872080549092161790558454909316845281905291200154610100900460ff16156108a257634e487b7160e01b600052600160045260246000fd5b600080546001600160a01b031681526005602052604090205460ff16156108d957634e487b7160e01b600052600160045260246000fd5b600080546001600160a01b03168152600560208190526040909120015460ff16151560011461091857634e487b7160e01b600052600160045260246000fd5b60008181526006602052604090205460ff16151560011461094957634e487b7160e01b600052600160045260246000fd5b600080546001600160a01b0316815260056020526040908190206002810154600382015492517ff11af35f6391ead7879040e53c10181c087a76737f0f8a4947097027f540b8bb9361099f936001019291611c30565b60405180910390a150565b600080546001600160a01b03168152600560208190526040909120015460ff1690565b600080546001600160a01b031681526005602052604090205460ff1615610a065760405162461bcd60e51b815260040161046090611d6a565b67016345785d8a0000341015610a2e5760405162461bcd60e51b815260040161046090611c55565b83838360008351118015610a425750600082115b8015610a4e5750600081115b610a6a5760405162461bcd60e51b815260040161046090611ddd565b6012821015610a8b5760405162461bcd60e51b815260040161046090611e86565b6000848152600660209081526040808320815160a08101909252805460ff16151582526001810180549293919291840191610ac590612004565b80601f0160208091040260200160405190810160405280929190818152602001828054610af190612004565b8015610b3e5780601f10610b1357610100808354040283529160200191610b3e565b820191906000526020600020905b815481529060010190602001808311610b2157829003601f168201915b505050505081526020016002820154815260200160038201548152602001600482018054610b6b90612004565b80601f0160208091040260200160405190810160405280929190818152602001828054610b9790612004565b8015610be45780601f10610bb957610100808354040283529160200191610be4565b820191906000526020600020905b815481529060010190602001808311610bc757829003601f168201915b5050509190925250508151919250501515600114610c145760405162461bcd60e51b815260040161046090611d0f565b600080546001600160a01b039081168252600560209081526040808420805460ff19166001908117909155845490931684529092208a51610c5d939190920191908b01906117b0565b50600080546001600160a01b0390811682526005602081905260408084206002018b90558354831684528084206003018a90558354831684528084208201805461ff00191690558354909216835290822001805460ff191690558152634e487b7160e01b600052600160045260246000fd5b60046020526000908152604090205481565b600080546001600160a01b03168152600560205260409020600101805460609190610d0b90612004565b80601f0160208091040260200160405190810160405280929190818152602001828054610d3790612004565b8015610d845780601f10610d5957610100808354040283529160200191610d84565b820191906000526020600020905b815481529060010190602001808311610d6757829003601f168201915b5050505050905090565b60009081526006602052604090206002015490565b600080546001600160a01b031681526005602081905260409091200154610100900460ff1690565b600080546001600160a01b031681526005602052604090205460ff1690565b600080546001600160a01b031681526005602052604090205460ff161515600114610e275760405162461bcd60e51b815260040161046090611eab565b600080546001600160a01b031681526005602081905260409091200154610100900460ff1615610e695760405162461bcd60e51b815260040161046090611e1f565b600080546001600160a01b039081168252600560208190526040808420909101805461ff0019169055825482168352808320805460ff19169055825490519116919067016345785d8a00009082818181858883f19350505050158015610ed3573d6000803e3d6000fd5b50600080546001600160a01b031681526005602081905260409091200154610100900460ff1615610f1457634e487b7160e01b600052600160045260246000fd5b600080546001600160a01b031681526005602052604090205460ff1615610f4b57634e487b7160e01b600052600160045260246000fd5b600080546001600160a01b0316815260056020526040908190206002810154600382015492517f558f292960addceeabcd96661a332929684e0344c1c679492d49bb64498c6a849361051f936001019291611c30565b60025481565b6005602052600090815260409020805460018201805460ff9092169291610fcd90612004565b80601f0160208091040260200160405190810160405280929190818152602001828054610ff990612004565b80156110465780601f1061101b57610100808354040283529160200191611046565b820191906000526020600020905b81548152906001019060200180831161102957829003601f168201915b505050506002830154600384015460048501546005909501549394919390925060ff8082169161010090041687565b6000808351118015611088575060008251115b6110a45760405162461bcd60e51b815260040161046090611d9b565b6110ac611834565b600280549060006110bc8361203f565b90915550506080810184905260208082018481526002546040808501829052600180865260009283526006855291208451815460ff191690151517815591518051859461110d9385019201906117b0565b5060408201516002820155606082015160038201556080820151805161113d9160048401916020909101906117b0565b505084511580159150611151575060008351115b61116b57634e487b7160e01b600052600160045260246000fd5b8051151560011461118c57634e487b7160e01b600052600160045260246000fd5b6002547f902d5a109e988730eb8999e5c34dcb60d536e0a7d52d16335bcd3c5648f1d2ca826040516111be9190611eef565b60405180910390a260019150505b92915050565b600080546001600160a01b031681526004602052604090205490565b60009081526006602052604090205460ff1690565b67016345785d8a000081565b6001600160a01b038216600090815260076020526040808220815160a081019092528054839291908290829061124490612004565b80601f016020809104026020016040519081016040528092919081815260200182805461127090612004565b80156112bd5780601f10611292576101008083540402835291602001916112bd565b820191906000526020600020905b8154815290600101906020018083116112a057829003601f168201915b505050505081526020016001820180546112d690612004565b80601f016020809104026020016040519081016040528092919081815260200182805461130290612004565b801561134f5780601f106113245761010080835404028352916020019161134f565b820191906000526020600020905b81548152906001019060200180831161133257829003601f168201915b505050918352505060028201546020808301919091526003909201546001600160a01b038116604080840191909152600160a01b90910460ff161515606090920191909152519192506113a491859101611b68565b6040516020818303038152906040528051906020012081602001516040516020016113cf9190611b68565b6040516020818303038152906040528051906020012014156114a15760016080820152826040516020016114039190611b68565b60405160208183030381529060405280519060200120816020015160405160200161142e9190611b68565b604051602081830303815290604052805190602001201461145f57634e487b7160e01b600052600160045260246000fd5b7fbdd5bb70264ff2c0cb7e174074895e522aa9d53f919fb486c17c158142a96e098160405161148e9190611f51565b60405180910390a16080015190506111cc565b7f4c74530a3ef466183b718601f9ad1f7a0c8ec56463a9e68efef55c81e7e4141f6040516114ce90611d3e565b60405180910390a160009150506111cc565b600081815260066020526040902060010180546060919061150090612004565b80601f016020809104026020016040519081016040528092919081815260200182805461152c90612004565b80156115795780601f1061154e57610100808354040283529160200191611579565b820191906000526020600020905b81548152906001019060200180831161155c57829003601f168201915b50505050509050919050565b6001600160a01b0381166000908152600760205260409020600301805460ff60a01b191690819055600160a01b900460ff16156115d257634e487b7160e01b600052600160045260246000fd5b50565b600080546001600160a01b031681526005602052604090206002015490565b600081815260066020526040902060040180546060919061150090612004565b600080546001600160a01b031681526005602052604090206003015490565b6006602052600090815260409020805460018201805460ff909216929161165990612004565b80601f016020809104026020016040519081016040528092919081815260200182805461168590612004565b80156116d25780601f106116a7576101008083540402835291602001916116d2565b820191906000526020600020905b8154815290600101906020018083116116b557829003601f168201915b5050505050908060020154908060030154908060040180546116f390612004565b80601f016020809104026020016040519081016040528092919081815260200182805461171f90612004565b801561176c5780601f106117415761010080835404028352916020019161176c565b820191906000526020600020905b81548152906001019060200180831161174f57829003601f168201915b5050505050905085565b6040518060a0016040528060608152602001606081526020016000815260200160006001600160a01b031681526020016000151581525090565b8280546117bc90612004565b90600052602060002090601f0160209004810192826117de5760008555611824565b82601f106117f757805160ff1916838001178555611824565b82800160010185558215611824579182015b82811115611824578251825591602001919060010190611809565b50611830929150611865565b5090565b6040518060a00160405280600015158152602001606081526020016000815260200160008152602001606081525090565b5b808211156118305760008155600101611866565b600082601f83011261188a578081fd5b81356001600160401b03808211156118a4576118a4612066565b604051601f8301601f1916810160200182811182821017156118c8576118c8612066565b6040528281528483016020018610156118df578384fd5b82602086016020830137918201602001929092529392505050565b60006020828403121561190b578081fd5b81356119168161207c565b9392505050565b600080600060608486031215611931578182fd5b833561193c8161207c565b925060208401356001600160401b0380821115611957578384fd5b6119638783880161187a565b93506040860135915080821115611978578283fd5b506119858682870161187a565b9150509250925092565b600080604083850312156119a1578182fd5b82356119ac8161207c565b915060208301356001600160401b038111156119c6578182fd5b6119d28582860161187a565b9150509250929050565b600080604083850312156119ee578182fd5b82356001600160401b0380821115611a04578384fd5b611a108683870161187a565b93506020850135915080821115611a25578283fd5b506119d28582860161187a565b60008060008060808587031215611a47578081fd5b84356001600160401b03811115611a5c578182fd5b611a688782880161187a565b97602087013597506040870135966060013595509350505050565b600060208284031215611a94578081fd5b5035919050565b60008151808452611ab3816020860160208601611fd4565b601f01601f19169290920160200192915050565b805460009060028104600180831680611ae157607f831692505b6020808410821415611b0157634e487b7160e01b86526022600452602486fd5b611b0b8489611fbf565b828015611b1f5760018114611b3057611b5b565b60ff19871682528282019750611b5b565b611b3989611fc8565b60005b87811015611b5557815484820152908601908401611b3c565b83019850505b5050505050505092915050565b60008251611b7a818460208701611fd4565b9190910192915050565b901515815260200190565b6000861515825260a06020830152611baa60a0830187611a9b565b8560408401528460608401528281036080840152611bc88185611a9b565b98975050505050505050565b6000881515825260e06020830152611bef60e0830189611a9b565b60408301979097525060608101949094526080840192909252151560a0830152151560c09091015292915050565b6000602082526119166020830184611a9b565b600060608252611c436060830186611ac7565b60208301949094525060400152919050565b60208082526010908201526f4e6f20656e6f7567682045746865727360801b604082015260600190565b6020808252601890820152774163636f756e742063616e206e6f7420626520656d70747960401b604082015260600190565b602080825260139082015272506c6561736520656e7465722061206e616d6560681b604082015260600190565b602080825260179082015276141b19585cd948195b9d195c8818481c185cdcdddbdc99604a1b604082015260600190565b60208082526015908201527421b0b91034b9903737ba1030bb30b4b630b136329760591b604082015260600190565b602080825260129082015271125b98dbdc9c9958dd0814185cdcdddbdc9960721b604082015260600190565b602080825260179082015276141b19585cd9481cdd185c9d081b995dc81c995b9d185b604a1b604082015260600190565b60208082526022908201527f506c6561736520656e746572206e616d6520616e6420636172206c6f6361746960408201526137b760f11b606082015260800190565b60208082526022908201527f506c6561736520656e746572206e616d652c2061676520616e64206c6963656e604082015261736560f01b606082015260800190565b6020808252601e908201527f43616e6e6f742063616e63656c20636f6e6669726d65642072656e74616c0000604082015260600190565b6020808252601690820152754163636f756e7420616c72656164792065786973747360501b604082015260600190565b6020808252600b908201526a496e76616c69642061676560a81b604082015260600190565b60208082526024908201527f506c6561736520636f6e6669726d2f63616e63656c206578697374696e67206f604082015263393232b960e11b606082015260800190565b600060208252825115156020830152602083015160a06040840152611f1760c0840182611a9b565b905060408401516060840152606084015160808401526080840151601f198483030160a0850152611f488282611a9b565b95945050505050565b600060208252825160a06020840152611f6d60c0840182611a9b565b90506020840151601f19848303016040850152611f8a8282611a9b565b9150506040840151606084015260018060a01b0360608501511660808401526080840151151560a08401528091505092915050565b90815260200190565b60009081526020902090565b60005b83811015611fef578181015183820152602001611fd7565b83811115611ffe576000848401525b50505050565b60028104600182168061201857607f821691505b6020821081141561203957634e487b7160e01b600052602260045260246000fd5b50919050565b600060001982141561205f57634e487b7160e01b81526011600452602481fd5b5060010190565b634e487b7160e01b600052604160045260246000fd5b6001600160a01b03811681146115d257600080fdfea2646970667358221220a118ba22ccd279e5517511f45c212c7f9485ade07b0f6269ba22fda26a0f9d2364736f6c63430008000033",
  "devdoc": {
    "kind": "dev",
    "methods": {},
    "version": 1
  },
  "userdoc": {
    "kind": "user",
    "methods": {},
    "version": 1
  },
  "storageLayout": {
    "storage": [
      {
        "astId": 3,
        "contract": "contracts/CarRental.sol:CarRental",
        "label": "rentalOwner",
        "offset": 0,
        "slot": "0",
        "type": "t_address_payable"
      },
      {
        "astId": 5,
        "contract": "contracts/CarRental.sol:CarRental",
        "label": "carOwner",
        "offset": 0,
        "slot": "1",
        "type": "t_address_payable"
      },
      {
        "astId": 11,
        "contract": "contracts/CarRental.sol:CarRental",
        "label": "totalCarNum",
        "offset": 0,
        "slot": "2",
        "type": "t_uint256"
      },
      {
        "astId": 14,
        "contract": "contracts/CarRental.sol:CarRental",
        "label": "totalUserNumber",
        "offset": 0,
        "slot": "3",
        "type": "t_uint256"
      },
      {
        "astId": 18,
        "contract": "contracts/CarRental.sol:CarRental",
        "label": "balances",
        "offset": 0,
        "slot": "4",
        "type": "t_mapping(t_address,t_uint256)"
      },
      {
        "astId": 60,
        "contract": "contracts/CarRental.sol:CarRental",
        "label": "rentals",
        "offset": 0,
        "slot": "5",
        "type": "t_mapping(t_address,t_struct(CustomerInfo)33_storage)"
      },
      {
        "astId": 65,
        "contract": "contracts/CarRental.sol:CarRental",
        "label": "cars",
        "offset": 0,
        "slot": "6",
        "type": "t_mapping(t_uint256,t_struct(CarInfo)44_storage)"
      },
      {
        "astId": 70,
        "contract": "contracts/CarRental.sol:CarRental",
        "label": "users",
        "offset": 0,
        "slot": "7",
        "type": "t_mapping(t_address,t_struct(User)55_storage)"
      }
    ],
    "types": {
      "t_address": {
        "encoding": "inplace",
        "label": "address",
        "numberOfBytes": "20"
      },
      "t_address_payable": {
        "encoding": "inplace",
        "label": "address payable",
        "numberOfBytes": "20"
      },
      "t_bool": {
        "encoding": "inplace",
        "label": "bool",
        "numberOfBytes": "1"
      },
      "t_mapping(t_address,t_struct(CustomerInfo)33_storage)": {
        "encoding": "mapping",
        "key": "t_address",
        "label": "mapping(address => struct CarRental.CustomerInfo)",
        "numberOfBytes": "32",
        "value": "t_struct(CustomerInfo)33_storage"
      },
      "t_mapping(t_address,t_struct(User)55_storage)": {
        "encoding": "mapping",
        "key": "t_address",
        "label": "mapping(address => struct CarRental.User)",
        "numberOfBytes": "32",
        "value": "t_struct(User)55_storage"
      },
      "t_mapping(t_address,t_uint256)": {
        "encoding": "mapping",
        "key": "t_address",
        "label": "mapping(address => uint256)",
        "numberOfBytes": "32",
        "value": "t_uint256"
      },
      "t_mapping(t_uint256,t_struct(CarInfo)44_storage)": {
        "encoding": "mapping",
        "key": "t_uint256",
        "label": "mapping(uint256 => struct CarRental.CarInfo)",
        "numberOfBytes": "32",
        "value": "t_struct(CarInfo)44_storage"
      },
      "t_string_storage": {
        "encoding": "bytes",
        "label": "string",
        "numberOfBytes": "32"
      },
      "t_struct(CarInfo)44_storage": {
        "encoding": "inplace",
        "label": "struct CarRental.CarInfo",
        "members": [
          {
            "astId": 35,
            "contract": "contracts/CarRental.sol:CarRental",
            "label": "isAvailable",
            "offset": 0,
            "slot": "0",
            "type": "t_bool"
          },
          {
            "astId": 37,
            "contract": "contracts/CarRental.sol:CarRental",
            "label": "carLocation",
            "offset": 0,
            "slot": "1",
            "type": "t_string_storage"
          },
          {
            "astId": 39,
            "contract": "contracts/CarRental.sol:CarRental",
            "label": "carID",
            "offset": 0,
            "slot": "2",
            "type": "t_uint256"
          },
          {
            "astId": 41,
            "contract": "contracts/CarRental.sol:CarRental",
            "label": "price",
            "offset": 0,
            "slot": "3",
            "type": "t_uint256"
          },
          {
            "astId": 43,
            "contract": "contracts/CarRental.sol:CarRental",
            "label": "ownerName",
            "offset": 0,
            "slot": "4",
            "type": "t_string_storage"
          }
        ],
        "numberOfBytes": "160"
      },
      "t_struct(CustomerInfo)33_storage": {
        "encoding": "inplace",
        "label": "struct CarRental.CustomerInfo",
        "members": [
          {
            "astId": 20,
            "contract": "contracts/CarRental.sol:CarRental",
            "label": "isValidRental",
            "offset": 0,
            "slot": "0",
            "type": "t_bool"
          },
          {
            "astId": 22,
            "contract": "contracts/CarRental.sol:CarRental",
            "label": "customerName",
            "offset": 0,
            "slot": "1",
            "type": "t_string_storage"
          },
          {
            "astId": 24,
            "contract": "contracts/CarRental.sol:CarRental",
            "label": "customerAge",
            "offset": 0,
            "slot": "2",
            "type": "t_uint256"
          },
          {
            "astId": 26,
            "contract": "contracts/CarRental.sol:CarRental",
            "label": "licenseID",
            "offset": 0,
            "slot": "3",
            "type": "t_uint256"
          },
          {
            "astId": 28,
            "contract": "contracts/CarRental.sol:CarRental",
            "label": "rentDuration",
            "offset": 0,
            "slot": "4",
            "type": "t_uint256"
          },
          {
            "astId": 30,
            "contract": "contracts/CarRental.sol:CarRental",
            "label": "hasReturned",
            "offset": 0,
            "slot": "5",
            "type": "t_bool"
          },
          {
            "astId": 32,
            "contract": "contracts/CarRental.sol:CarRental",
            "label": "hasConfirmed",
            "offset": 1,
            "slot": "5",
            "type": "t_bool"
          }
        ],
        "numberOfBytes": "192"
      },
      "t_struct(User)55_storage": {
        "encoding": "inplace",
        "label": "struct CarRental.User",
        "members": [
          {
            "astId": 46,
            "contract": "contracts/CarRental.sol:CarRental",
            "label": "userName",
            "offset": 0,
            "slot": "0",
            "type": "t_string_storage"
          },
          {
            "astId": 48,
            "contract": "contracts/CarRental.sol:CarRental",
            "label": "password",
            "offset": 0,
            "slot": "1",
            "type": "t_string_storage"
          },
          {
            "astId": 50,
            "contract": "contracts/CarRental.sol:CarRental",
            "label": "userID",
            "offset": 0,
            "slot": "2",
            "type": "t_uint256"
          },
          {
            "astId": 52,
            "contract": "contracts/CarRental.sol:CarRental",
            "label": "userAddress",
            "offset": 0,
            "slot": "3",
            "type": "t_address_payable"
          },
          {
            "astId": 54,
            "contract": "contracts/CarRental.sol:CarRental",
            "label": "isUserLoggedIn",
            "offset": 20,
            "slot": "3",
            "type": "t_bool"
          }
        ],
        "numberOfBytes": "128"
      },
      "t_uint256": {
        "encoding": "inplace",
        "label": "uint256",
        "numberOfBytes": "32"
      }
    }
  }
}